:020000040000FA
:1000000020260020E5010000ED010000EF010000C6
:10001000F1010000F3010000F501000055000000AF
:10002000000000000000000000000000F7010000D8
:10003000F901000000000000FB010000FD010000CC
:1000400007140000F90B0000390C0000EB10000051
:10005000F5100000FF100000091100009D0A0000CB
:1000600017140000FF010000FF010000FF01000065
:10007000FF010000FF010000FF010000FF01000080
:10008000FF010000FF010000FF010000FF01000070
:10009000FF010000FF010000FF010000FF01000060
:1000A000FF010000FF010000FF010000FF01000050
:1000B000FF010000FF010000FF010000FF01000040
:1000C00000F002F800F073F80AA090E8000C8244F7
:1000D0008344AAF10107DA4501D100F068F8AFF2D4
:1000E000090EBAE80F0013F0010F18BFFB1A43F016
:1000F00001031847E4780000047900000A444FF037
:10010000000C10F8013B13F0070408BF10F8014B76
:100110001D1108BF10F8015B641E05D010F8016BBB
:10012000641E01F8016BF9D113F0080F1EBF10F81F
:10013000014BAD1C0C1B09D16D1E58BF01F801CB42
:10014000FAD505E014F8016B01F8016B6D1EF9D5C5
:100150009142D6D3704700000023002400250026DA
:10016000103A28BF78C1FBD8520728BF30C148BF1A
:100170000B607047662907F04682692905F06080A8
:10018000642905F05D80782905F09680732905F0D3
:100190007A84002070471FB505F07AFC0400002027
:1001A000002106F0BDF9E0601FBD10B510BD05F0DF
:1001B0006BFD1146FFF7EFFF00F064F805F089FDD5
:1001C00003B4FFF7F2FF03BC05F0CCFD034804497C
:1001D00008607047014802490860704740787D0117
:1001E000000000200948804709480047FEE7FEE775
:1001F000FEE7FEE7FEE7FEE7FEE7FEE7FEE7FEE7D7
:1002000004480549054A064B70470000D501000027
:10021000C1000000201600202026002020220020FF
:100220002022002010B504462146024802F08CFC32
:1002300010BD00000000104010B5044603E0207817
:10024000FFF7F0FF641C20780028F8D110BD0000F3
:1002500070B504460D460948006820B1294620467D
:10026000064A1268904700BF054800680028FBD185
:1002700070BD024908607047704700000C00002004
:1002800008000020D8B04FF0C049C1481690C1A165
:1002900003C9CDE90C01C1A103C9CDE90A0120229E
:1002A000C04902A805F0FEF800F06BFF00BF4FF058
:1002B000FF30BD49086000BF00F03AFC044614B1AD
:1002C000BAA0FFF7B9FF012000F0F4FB022000F014
:1002D000F1FB00F081FC002000F0ECFB00F0F4FFEB
:1002E000072000F0F2FB0720AF498039420951F89E
:1002F000221001228240114009B1012100E00021B9
:100300000E4600BF304600F0A5FD044614B1B2A071
:10031000FFF792FF00F0BBFD169800681590159846
:10032000C0F3035013901598C0F30B1A159800F002
:100330000F001490AAF6214010B102280AD104E05F
:10034000B3A10EA805F06BF80AE0B4A10EA805F061
:1003500066F805E05246B4A10EA804F033FF00BFD2
:1003600000BF139800900EAAB2A118A8149B04F025
:1003700029FFB9A0FFF760FF18A8FFF75DFFC0A035
:10038000FFF75AFF1EB1C8A0FFF756FF02E0CFA04B
:10039000FFF752FFD5A0FFF74FFFE2A0FFF74CFF9A
:1003A000ADA0FFF749FF00240020C069552800D008
:1003B000641C4FF08050C069552800D0A41C0C204C
:1003C0004FF08051C8619EB10020C0690C2800D058
:1003D000241D0B200021C8610020C0690B2800D01B
:1003E000241D4FF08050C0690B280CD008340AE05F
:1003F0000020C069552800D0241D4FF08050C069EE
:100400000C2800D00834032C03D1CAA0FFF714FF36
:100410000024022C03D1D6A0FFF70EFF0024042CE9
:1004200007D10020C0690C2803D1DCA0FFF704FF2E
:1004300000245CB1E0A0FFF7FFFE2246E5A118A86A
:1004400004F0C0FE18A8FFF7F7FE02E0E3A0FFF7F4
:10045000F3FE002505E002A850F8250049F8040B3A
:100460006D1C082DF7D300274FF0C049002508E088
:1004700059F8041B02A850F82500814200D07F1CC7
:100480006D1C082DF4D31FB1D8A0FFF7D5FE02E0F4
:10049000DFA0FFF7D1FE00F003FD04460022082193
:1004A0000CA800F023FD0446002208210AA800F051
:1004B00062FD04460027002507E00AA8405D0CA95C
:1004C000495D884200D07F1C6D1C082DF5D31FB1FB
:1004D000D5A0FFF7B1FE02E0DDA0FFF7ADFEE349D6
:1004E00017A800F017FB0446012C02D1E0A0FFF78B
:1004F000A3FEDE49491C4FF0102000F00BFB044620
:10050000012C02D1E3A0FFF797FED849891C1C20DB
:1005100000F000FB0446012C03D116B1E8A0FFF760
:100520008BFE1CB916B9F1A0FFF786FECF49C91C96
:10053000480700F0EFFA04461CB916B9F4A0FFF71B
:100540007BFEFCA0FFF778FE00F097FE00F0C1FEF6
:1005500004F004FE02F02EFE02F04CFC02F040FE1D
:1005600002F09AFE02F022FCFB4803F09BF902F035
:10057000A5FB03F06DF90E21012000F0B8FB0E2160
:10058000022000F0B4FB0121032000F0B0FB84E264
:1005900000ED00E00123456789ABCDEFFFFFFFFFD2
:1005A000FFFFFFFF0C76000080E200E04572726FF3
:1005B00072202D2058696C696E78204750494F2071
:1005C0006661696C656420746F20696E6974696125
:1005D0006C6973650A0000004572726F72202D20ED
:1005E00058696C696E782053504920636F6E74723D
:1005F0006F6C6C657273206661696C656420746FE2
:1006000020696E697469616C6973650A0000000095
:10061000436F727465782D4D31000000436F727422
:1006200065782D4D33000000556E6B6E6F776E2030
:100630002578000041726D2025732052657669731C
:10064000696F6E2025692056617269616E7420257C
:10065000690D0A0A000000002A2A2A2A2A2A2A2AC0
:100660002A2A2A2A2A2A2A2A2A2A2A2A2A2A2A2AEA
:100670002A2A2A2A2A2A2A2A2A2A2A2A0D0A00006B
:100680004578616D706C652064657369676E20667E
:100690006F7220446967696C656E7420413720620F
:1006A0006F6172640D0A00000A5632432D444150B6
:1006B0004C696E6B20626F617264206E6F7420648F
:1006C000657465637465640D0A0000000A56324360
:1006D0002D4441504C696E6B20626F6172642064DE
:1006E000657465637465640D0A00000055736520C8
:1006F00044495020737769746368657320616E6440
:10070000207075736820627574746F6E7320746FD7
:100710000D0A636F6E74726F6C204C4544530D0A62
:10072000000000002056657273696F6E20342E3908
:10073000380D0A00557070657220616E64206C6F10
:1007400077657220726567696F6E7320777269745E
:1007500074656E2073696E6365204252414D206955
:100760006E697469616C697365640D0A000000004C
:10077000557070657220616C69617320777269745D
:10078000656E2073696E6365204252414D20696E2B
:10079000697469616C697365640D0A004954434D5D
:1007A00020616C736F20616C696173656420686996
:1007B00067680D0A00000000556E65787065637407
:1007C000656420616C696173206265686176696F38
:1007D000757200002025640D0A000000416C6961FB
:1007E00073696E67204F4B0D0A0000004552524F4F
:1007F00052202D204272616D2072656164626163D6
:100800006B20636F727275707465642E0D0A000040
:100810004272616D20726561646261636B20636F17
:1008200072726563740D0A004552524F52202D209A
:10083000426173652053504920726561646261634F
:100840006B20636F727275707465642E0D0A000000
:10085000426173652053504920726561646261632F
:100860006B20636F72726563740D0A00301234126C
:100870005354524558204454434D206661696C6579
:100880006420756E65787065637465646C790D0AB3
:10089000000000005354524558204954434D2068ED
:1008A00069676820616C696173206661696C656461
:1008B00020756E65787065637465646C790D0A00E7
:1008C0005354524558204954434D206C6F77206152
:1008D0006C696173206661696C656420756E65780A
:1008E0007065637465646C790D0A00005354524559
:1008F00058205153504920737563636573732028E2
:10090000756E6578706563746564290D0A00000072
:100910005354524558204252414D207375636365CC
:1009200073732028756E6578706563746564290D2E
:100930000A00000041746F6D6963207472616E7308
:10094000616374696F6E207465737420636F6D707A
:100950006C657465640D0A008815002002F0D8FFEC
:1009600002F04EFA03F01DF95C48007800287DD0B3
:10097000A52004F0FDFB4FF0000B02F025FC8046A3
:1009800057480078574908805748007848805748AA
:100990000078888056480078C8805548008800B2A2
:1009A0000012088108F0FF0048810FFA88F0001259
:1009B00088815048006806F017FCC0B24949C881D8
:1009C0004C48006806F010FC00B20012454908824D
:1009D0004948006806F008FCC0B2424948824648CF
:1009E000006806F001FC00B200123E4988824348CC
:1009F000006806F0F9FBC0B23A49C8823F48006877
:100A000006F0F2FB00B2001236490883087804F0C1
:100A1000AFFB3449887804F0ABFB3249087904F025
:100A2000A7FB3049887904F0A3FB2E49087A04F02B
:100A30009FFB2C49887A04F09BFB2A49087B04F031
:100A400097FB2849887B04F093FB2649087C04F037
:100A50008FFB2449887C04F08BFB2249087D04F03D
:100A600087FB2049887D04F083FB00E015E01D49E9
:100A7000087E04F07DFB002506E01A4830F81500DA
:100A800058440FFA80FB6D1C0D2DF6DB0BF0FF00B8
:100A900004F06EFB5A2004F06BFB5FE710B50720F3
:100AA00001218140164A430942F8231000BF00F09B
:100AB0000CF810BD00F01F02012191404209920084
:100AC00002F1E022C2F80011704700F01F0201217C
:100AD00091400C4A430942F823107047000200205D
:100AE0004001002004020020380100206C01002099
:100AF000C401002010010020140100201801002072
:100B000080E200E080E100E0024652E8003F42E877
:100B1000001070477CB504460D46206801902946B8
:100B20002046FFF7F1FF06462068009030467CBD66
:100B300010B50021BF4800F080FF04460CB1012031
:100B400010BD0121BC4800F078FF04460CB1012023
:100B5000F6E70321B94800F070FF04460CB101200C
:100B6000EEE70221B64800F068FF04460CB1012010
:100B7000E6E76FF00F020121AE4800F0A3FC4FF052
:100B8000FF320221AB4800F09DFCAE4A0121AA4889
:100B900000F098FC4FF0FF320221A74800F092FCD1
:100BA00000220121A54800F08DFC6FF00702012111
:100BB000A34800F087FC002201219F4800F03FFD80
:100BC000002201219B4800F03AFD002201219C48AF
:100BD00000F035FD0020B3E710B50221964800F083
:100BE000E2FD0221934800F0DEFD934800F06EFD27
:100BF000904800F06BFD10BD00B5C1B002218D48DA
:100C000000F0DEFC409001218A48409A00F017FD78
:100C10008D49409808708DA16846409A04F0D2FA38
:100C2000684600F0CDFB0321824800F038FE012029
:100C300000F0F6F841B000BD7CB502217E4800F01E
:100C4000BFFC002836D002217B4800F0B9FC01909F
:100C50000121794800F0B4FC0090019800F00100F7
:100C600010B10724012516E0019800F0020010B130
:100C7000382408250FE0019800F0040018B14FF463
:100C8000E074402507E0019800F0080018B14FF427
:100C900060644FF40075009800EA0406701900EAD9
:100CA00004060098A0433043009001216248009A56
:100CB00000F0C5FC0321604800F0F1FD022000F0C7
:100CC000AFF87CBD10B50446224601215B4800F018
:100CD000B6FC10BD08B50221564800F071FC00902A
:100CE000009A521C0121534800F0A9FC08BD38B5F8
:100CF00005460C460121524800F062FC0090012D8F
:100D000004D0022D16D0032D3CD127E0012C07D1B1
:100D1000009840F001020121494800F090FC08E0F1
:100D20000E2C06D1009800F00E020121444800F07C
:100D300086FC27E0022C07D1009840F00202012136
:100D40003F4800F07CFC08E00D2C06D1009800F034
:100D50000D0201213A4800F072FC13E0042C07D187
:100D6000009840F004020121354800F068FC08E0DA
:100D70000B2C06D1009800F00B020121304800F046
:100D80005EFC00BF00BF01212D4800F019FC38BDFA
:100D900010B50446062C41D2DFE804F04003101DD4
:100DA00026330E210120FFF7A2FF02210846FFF79C
:100DB0009EFF0B210320FFF79AFF2FE00E21012059
:100DC000FFF795FF0D210220FFF791FF042103207B
:100DD000FFF78DFF22E001210846FFF788FF0E2173
:100DE0000120FFF784FF19E00E210120FFF77FFFAC
:100DF0000D210220FFF77BFF0B210320FFF777FF78
:100E00000CE00E210120FFF772FF02210846FFF7D8
:100E10006EFF04210320FFF76AFF00BF00BF10BD73
:100E200000F01F0201219140094A430942F82310B2
:100E3000704700002C0200203C0200204C020020E1
:100E40005C02002000F0FFFF100000202578000069
:100E500080E200E070B505460021B54801F066FB70
:100E600004460CB1012070BDB14800F02CFEB04822
:100E700000F021FFAE49896901F11C00002100F05A
:100E800054F90121AA4801F05AF90020EBE710B506
:100E9000A749896901F11C00002100F046F910BD45
:100EA00070B5A349896901F1600000F03BF905467E
:100EB00045F004019E4A926902F1600000F035F9A4
:100EC00006209C49087001230022994800F083FF06
:100ED0000446052097490870FF2048700223964A6F
:100EE000934800F078FF0446204670BD2DE9F04796
:100EF00007460D4616468E49896901F1600000F0EB
:100F000011F9804648F00401894A926902F16000B3
:100F100000F00BF90DB1FC2D02D90120BDE8F087DE
:100F200006208449087001230022814800F053FF05
:100F3000814602207F490870300C4870300A887062
:100F4000CE70002405E017F8011B201D794A1154CA
:100F5000641CAC42F7D32B1D00227649744800F084
:100F60003AFF8146002400E0641C44F6206084427D
:100F7000FAD34846D2E72DE9F04707460D46164614
:100F80006B49896901F1600000F0CCF8804648F0B7
:100F90000401674A926902F1600000F0C6F80DB1E1
:100FA000FC2D02D90120BDE8F087032061490870BB
:100FB000300C4870300A8870CE70002404E00021A4
:100FC000201D5C4A1154641CAC42F8D32B1D5A4AB4
:100FD0005849574800F0FFFE8146002405E0564975
:100FE000201D085C07F8010B641CAC42F7D348468F
:100FF000D9E72DE9F04F93B00746884600201290BC
:101000004B4890F82D402046E11704EB5171CD106C
:101010002346424649A102A8009504F0D3F802A84D
:10102000FFF70AF94249896901F1600000F07AF896
:1010300083464BF004013E4A926902F1600000F0E1
:1010400074F84FF0000A17E03949896901F164002A
:1010500000F068F8064606F0080060B997F80090BE
:101060002F443349896901F16800494600F05DF871
:10107000129828441290AA44C245E5D32C498969A4
:1010800001F17000002100F050F82949896901F14F
:10109000600000F047F820F4807B4BF00201244A06
:1010A000926902F1600000F040F800BF20498969B0
:1010B00001F1200000F036F8064606F00400002892
:1010C000F4D01B49896901F1200000F02BF840F0B1
:1010D000040017490190896901F12000019900F08D
:1010E00024F8129813B0BDE8F08F10B5032000F07B
:1010F00010F810BD10B5042000F00BF810BD10B5AD
:10110000052000F006F810BD10B5062000F001F82B
:1011100010BD00F01F02012191400F4A430942F81F
:1011200023107047014608687047024611607047F7
:101130006C020020C8020020C80300206C656E20ED
:1011400025692C205769642025692C20696E6372FB
:101150002025690D0A00000080E200E070B5054618
:101160000C46B54804600122B449B54801F079FA4B
:101170000122B249B24801F021FB70BDB14A1160B1
:10118000704710B50021AE4801F009FD04460CB1CE
:10119000012010BDAA4AAFF21B01104601F0FEFB70
:1011A000A74AAFF24701104601F0C6FB0122A3494E
:1011B000A34801F003FB0020EBE770B505460C46A1
:1011C000A1480460A1480178A14802780078401C39
:1011D0009F4B18709F48815418460078012843D1CE
:1011E0000020194608709C48007800B3994801789F
:1011F0009A4802780078401C984B1870984881549F
:1012000094480078FF282FD196480078401C9549D3
:10121000087008460078032826D100200870194677
:1012200008708D49087001208F4908701CE08948BA
:10123000007865280BD087480078702807D085484B
:1012400000785A2803D0834800785B280CD1814865
:101250000178824802780078401C804B18708048E2
:10126000815401207C490870012278497F4801F0AF
:10127000A5FA70BD7E4A1160704710B501217B4808
:1012800001F08DFC04460CB1012010BD774AAFF28D
:101290001B01104601F082FB744AAFF2E1011046D7
:1012A00001F04AFB01226949704801F087FA0020E9
:1012B000EBE7614909686F4A1268881A18B15E49FC
:1012C00009686C4A1160704710B55D4801F00BFC6D
:1012D00010BD10B50820012181404209920002F1A1
:1012E000E022C2F8001100BF604801F0FCFB0820BA
:1012F0000021002807DA8A07140E5F4A00F00F0366
:101300001B1FD45403E08A07130E5C4A135400BF1A
:1013100010BD70B504460D46002600BF06E02178DA
:10132000574801F011FC641C701CC6B2AE42F6DBDB
:1013300070BD10B504462146514801F005FC10BDB2
:1013400010B5044604E021784D4801F0FDFB641C13
:1013500020780028F7D1FF21494801F0F5FBFF2153
:10136000474801F0F1FBFF21454801F0EDFB10BDBE
:1013700010B5044608E02178414801F0E5FB2178EA
:10138000404801F0E1FB641C20780028F3D1FF21E4
:101390003B4801F0D9FBFF213A4801F0D5FBFF2182
:1013A000374801F0D1FBFF21364801F0CDFBFF218A
:1013B000334801F0C9FBFF21324801F0C5FB10BDE5
:1013C00010B5044604E021782E4801F0BDFB641CF2
:1013D00020780028F7D110BD10B5044621462948D1
:1013E00001F0B2FB10BD70B504460D46002600BFEB
:1013F00006E02178224801F0A7FB641C701CC6B2ED
:10140000AE42F6DB70BD10B50D4801F01FFB0020A9
:1014100000F009F810BD10B5144801F017FB0820C2
:1014200000F001F810BD00F01F0201219140164AA2
:10143000430942F8231070471400002026000020C2
:10144000C8040020180000201C00002027000020F5
:101450002E0000202C000020310000203000002051
:10146000740500202F000020BC010020140500207E
:10147000200000203400002018ED00E000E400E02F
:10148000000060400000104080E200E070B50446BB
:101490000D4616461CB100208A49086008E07921F3
:1014A0008948FEF7D5FE012086490860002070BDFE
:1014B0002660A868A060E868E0604FF011306060C6
:1014C0000020F4E770B504460D4616461CB1002016
:1014D0007C49086007E09E217B48FEF7B9FE0120A9
:1014E0007849086070BD6068B0F1113F03D10020F9
:1014F0007449086007E09F217348FEF7A9FE0120A8
:1015000070490860EEE7012D04D0022D06D1E06895
:10151000012803D100206B49086007E0A0216A4838
:10152000FEF796FE012067490860DBE7691E042389
:1015300003EBC10122685018314600F0BFF800BF2C
:10154000D0E770B504460D461CB100205D49086027
:1015500008E0BC215C48FEF77BFE01205949086089
:10156000002070BD6068B0F1113F03D100205549E3
:10157000086008E0BD215448FEF76AFE0120514989
:1015800008600020EDE7012D04D0022D06D1E068AF
:10159000012803D100204B49086008E0BE214A48D9
:1015A000FEF756FE0120474908600020D9E7691E72
:1015B000042303EBC1012268501801680846D0E7F4
:1015C00070B504460D461CB100203E49086008E095
:1015D000D6213D48FEF73CFE01203A490860002034
:1015E00070BD6068B0F1113F03D10020354908603B
:1015F00008E0D7213448FEF72BFE0120314908606E
:101600000020EDE7012D04D0022D06D1E06801286D
:1016100003D100202B49086008E0D8212A48FEF7B2
:1016200017FE0120274908600020D9E7691E002322
:1016300003EBC1012268501801680846D0E770B575
:1016400004460D4616461CB100201E49086007E0FE
:10165000F2211D48FEF7FCFD01201A49086070BD0B
:101660006068B0F1113F03D100201649086007E01F
:10167000F3211548FEF7ECFD012012490860EEE762
:10168000012D04D0022D06D1E068012803D10020ED
:101690000C49086007E0F4210B48FEF7D9FD012052
:1016A00008490860DBE7691E002303EBC1012268DB
:1016B0005018314600F002F800BFD0E70246116032
:1016C0007047000004000020E876000010B50446D2
:1016D0001CB10020CD49086007E05B21CC48FEF733
:1016E000B7FD0120C949086010BD6068B0F1113F25
:1016F00003D10020C549086007E05C21C448FEF71B
:10170000A7FD0120C1490860EEE7A068012803D1C8
:101710000020BE49086007E05D21BD48FEF798FD46
:101720000120BA490860DFE7216801F58E704FF0AB
:10173000004100F067F900BFD6E710B504461CB1C0
:101740000020B249086007E07621B148FEF780FD2D
:101750000120AE49086010BD6068B0F1113F03D1AF
:101760000020AA49086007E07721A948FEF770FD2C
:101770000120A6490860EEE7A068012803D10020F7
:10178000A249086007E07821A148FEF761FD012029
:101790009E490860DFE7216801F58E70002100F0A6
:1017A00031F900BFD7E770B504460D461CB10020E3
:1017B0009649086007E094219548FEF749FD01200D
:1017C0009249086070BD6068B0F1113F03D10020FC
:1017D0008E49086007E095218D48FEF739FD01200C
:1017E0008A490860EEE7A068012803D100208749F4
:1017F000086007E096218648FEF72AFD012083490C
:101800000860DFE7216801F5947000F0F8F80646FB
:1018100046EA0501226802F5947000F0F3F800BF73
:10182000D0E770B504460D461CB10020774908602A
:1018300007E0B8217648FEF70BFD012073490860E8
:1018400070BD6068B0F1113F03D100206F4908609E
:1018500007E0B9216E48FEF7FBFC01206B490860E8
:10186000EEE7A068012803D100206849086007E07E
:10187000BA216748FEF7ECFC012064490860DFE705
:10188000216801F5947000F0BAF8064626EA0501D1
:10189000226802F5947000F0B5F800BFD0E770B58B
:1018A00004460D461CB100205849086007E0DB21C2
:1018B0005748FEF7CDFC01205449086070BD6068B0
:1018C000B0F1113F03D100205049086007E0DC214E
:1018D0004F48FEF7BDFC01204C490860EEE7A068C8
:1018E000012803D100204949086007E0DD2148486C
:1018F000FEF7AEFC012045490860DFE7216801F5ED
:10190000907000F07CF8064606EA0501226802F5B0
:10191000907000F077F800BFD0E710B504461CB116
:1019200000203A49086008E0FE213948FEF790FCA3
:10193000012036490860002010BD6068B0F1113FF9
:1019400003D100203149086008E0FF213048FEF74C
:101950007FFC01202D4908600020EDE7A0680128E8
:1019600003D100202949086009E04FF4807128481C
:10197000FEF76EFC0120254908600020DCE72168A5
:1019800001F5947000F03BF8D6E710B504461CB1A1
:1019900000201E49086009E040F21B111C48FEF7B8
:1019A00057FC012019490860002010BD6068B0F1A3
:1019B000113F03D100201549086009E04FF48E71F2
:1019C0001348FEF745FC0120104908600020ECE7B1
:1019D000A068012803D100200C49086009E040F20A
:1019E0001D110B48FEF734FC012008490860002057
:1019F000DBE7216801F5907000F001F8D5E70146BA
:101A0000086870470246116070470000040000201B
:101A1000347700000246002000210AE0174B03EB58
:101A200001131B88934203D1144B03EB011002E016
:101A3000491C0429F2DB00BF704770B505460E460D
:101A40001DB100200E49086008E08B210D48FEF70B
:101A5000FFFB01200A490860002070BD3046FFF7F7
:101A6000D9FF04461CB9002068600220F5E7214632
:101A700028466268FFF70AFDEFE700003C000020FF
:101A8000040000208477000070B50446A26902F1CA
:101A90007000216B00F02DFDA16901F1600000F0E4
:101AA00025FD85B245F48075606A08B145F0600592
:101AB000A16901F16000294600F01BFD002060646F
:101AC0002064A06470BD10B504461CB10020FE491E
:101AD000086008E040F2B311FC48FEF7B9FB0120B2
:101AE000F949086010BDE069B0F1113F03D1002051
:101AF000F549086008E04FF4DA71F448FEF7A8FBF6
:101B00000120F1490860EDE72046FFF7BDFF002006
:101B10002062206B6063A16901F140000A2100F09E
:101B2000E8FC00BFDEE770B504460D46164640F2FD
:101B30001741E648FEF78CFB0120E349086070BDC1
:101B40002DE9F84304460D4690461CB10020DE49BD
:101B5000086009E0A921DD48FEF77AFB0120DA4997
:101B600008600020BDE8F883206AB0F1223F01D16F
:101B70000520F7E700202062A064D548E06400203B
:101B8000A063E06320646064C4F81880A8686062A1
:101B9000E868A062287C84F82C00687C18B90820CA
:101BA00084F82D0002E0687C84F82D00A87C84F87D
:101BB0002E0068696065287E84F858004FF0113067
:101BC000E06194F82C1001208840401E2063206BB7
:101BD0006063002020606060A060E0602061606160
:101BE000687E012862D1A16901F1600000F07EFCED
:101BF000064646F06606A16901F16000314600F034
:101C000078FC9F208DF8000000208DF801008DF8F1
:101C100002009DF80010A26902F1680000F069FC62
:101C20009DF80110A26902F1680000F062FC9DF8C5
:101C30000210A26902F1680000F05BFCA16901F1E9
:101C4000600000F053FC064626F48076A16901F19D
:101C50006000314600F04DFCA16901F1600000F028
:101C600045FC064646F48076A16901F160003146E4
:101C700000F03FFCA16901F1640000F037FC074669
:101C800007F0010020B9A16901F16C0000F02EFC01
:101C9000A16901F1640000F029FC074607F001008A
:101CA00020B9A16901F16C0000F020FC2046FFF78B
:101CB0000AFF002056E770B504461CB10020824997
:101CC000086009E040F235118048FEF7C1FA0120B2
:101CD0007D490860002070BDE069B0F1113F03D17B
:101CE00000207949086009E04FF49B717748FEF7BE
:101CF000AFFA0120744908600020ECE7206AB0F1D7
:101D0000223F01D10520E6E7A16901F1280000F09A
:101D1000EDFB42F22B0140EA0106A16901F1280026
:101D2000314600F0E6FB4FF022302062A16901F15C
:101D3000600000F0DBFB054645F06205A16901F19A
:101D40006000294600F0D5FBA16901F11C004FF0AD
:101D5000004100F0CEFB0020BDE770B504461CB189
:101D600000205949086009E040F283115748FEF706
:101D70006FFA012054490860002070BDE069B0F19D
:101D8000113F03D100205049086009E04FF4C271AF
:101D90004E48FEF75DFA01204B4908600020ECE751
:101DA000A06C08B11520E8E7A16901F11C00002131
:101DB00000F09FFBA16901F1600000F097FB054670
:101DC00025F00201A26902F1600000F092FB002000
:101DD000206200BFD1E72DE9FC5F04468A469346A6
:101DE0001F464FF000091CB10020374908600AE087
:101DF00040F226213548FEF72BFA012032490860CF
:101E00000020BDE8FC9FBAF1000F03D000202E494E
:101E1000086009E040F227212C48FEF719FA01205A
:101E2000294908600020ECE71FB10020264908601E
:101E300009E04FF40A712548FEF70AFA0120224909
:101E400008600020DDE7E069B0F1113F03D1002018
:101E50001D49086009E040F229211C48FEF7F8F905
:101E60000120194908600020CBE7206AB0F1223F29
:101E700001D00620C5E7A06C08B11520C1E7A16913
:101E800001F11C0000F032FBB0F1004F01D1012044
:101E900000E000200190A16901F11C00002100F088
:101EA00028FBA16901F1600000F020FB064606F066
:101EB0000400D0B106F00100B8B9D4E90C10884292
:101EC00013D10198012805E004000020D877000014
:101ED000271B000006D1A16901F11C004FF0004151
:101EE00000F007FB40F283408BE70120A064C4F8B8
:101EF00038A0C4F83CB02764676494F82D50A169F9
:101F000001F1640000F0F2FA804624E0082D03D1CC
:101F1000A06B90F800900AE0102D03D1A06BB0F8F0
:101F2000009004E0202D02D1A06BD0F80090A169B0
:101F300001F16800494600F0DCFAA06B00EBE50017
:101F4000A063606CA0EBE5006064A16901F164002E
:101F500000F0CCFA804608F0080010B9606C002848
:101F6000D4D1A26902F17000616B00F0C2FAA169DC
:101F700001F1600000F0BAFA064626F48076A16905
:101F800001F16000314600F0B4FA0198012815D142
:101F9000A16901F1280000F0A9FA40F004000090C6
:101FA000A16901F12800009900F0A3FAA16901F1EB
:101FB0001C004FF0004100F09CFABEE0A5E000BF1D
:101FC000A16901F1200000F091FA804608F00400B8
:101FD0000028F5D0A16901F1200000F087FA40F057
:101FE00004000090A16901F12000009900F081FA3D
:101FF000A16901F1600000F079FA064646F48071AB
:10200000A26902F1600000F074FAA16901F16400B4
:1020100000F06CFA804630E0A16901F16C0000F03C
:1020200065FA8146082D07D1E06BD0B1E26B501CF8
:10203000E06382F8009014E0102D08D1E06B80B1CD
:10204000E16BA1F80090E06B801CE06309E0202DBB
:1020500007D1E06B28B1E06BC0F80090E06B001D89
:10206000E063206900EBE5002061A7EBE507A169CB
:1020700001F1640000F03AFA804608F001000028FF
:10208000CAD0606CF0B3A16901F1640000F02EFACF
:10209000804624E0082D03D1A06B90F800900AE060
:1020A000102D03D1A06BB0F8009004E0202D02D1D8
:1020B000A06BD0F80090A16901F16800494600F0DA
:1020C00018FAA06B00EBE500A063606CA0EBE500E4
:1020D0006064A16901F1640000F008FA804608F02C
:1020E000080010B9606C0028D4D1A16901F160002A
:1020F00000F0FCF9064626F48076A16901F1600043
:10210000314600E001E000F0F4F9002F7FF457AF12
:10211000A16901F1600000F0E9F9064646F480711A
:10212000A26902F1600000F0E4F9A26902F1700016
:10213000216B00F0DEF90020A064002061E62DE9AB
:10214000F04104460E461CB10020EB4908600AE04D
:102150004FF45F71E948FEF77BF80120E64908601B
:102160000020BDE8F081E069B0F1113F03D100200B
:10217000E149086009E040F27D31E048FEF768F887
:102180000120DD4908600020EBE7A06C08B11520B4
:10219000E7E7002794F82C00451E06E026FA05F034
:1021A00000F0010000B17F1C6D1E002DF6DA012F3A
:1021B00002DD40F28440D4E7F04360630020D0E7C2
:1021C00010B504461CB10020CB49086009E040F27C
:1021D000BB31CA48FEF73CF80120C749086000201F
:1021E00010BDE069B0F1113F03D10020C249086081
:1021F00009E04FF46F71C148FEF72AF80120BE498B
:1022000008600020ECE7606BC043E9E770B5044666
:102210000E4615461CB10020B749086008E040F2A0
:10222000F931B648FEF714F80120B349086070BDD3
:102230001DB10020B049086008E040F2FA31AF4813
:10224000FEF706F80120AC490860F0E7E069B0F15C
:10225000113F03D10020A849086008E040F2FB319B
:10226000A648FDF7F5FF0120A3490860DFE7E56414
:10227000266500BFDBE72DE9F84F81464C46002775
:10228000B9F1000F03D000209B49086009E040F23B
:1022900056419A48FDF7DCFF012097490860BDE8E8
:1022A000F88F6069401C6061A16901F1200000F0B5
:1022B0001DF90546A16901F1200000F017F9284336
:1022C0000090A16901F12000009900F012F905F0D9
:1022D0000100A8B1D4E91001A0EB010A2068401C5C
:1022E00020602046FFF7D0FBA16901F1640000F0F7
:1022F000FDF8524640F27F41D4E913309847CEE7CB
:1023000094F82D6005F0040018B905F0400000288D
:102310007AD0A16901F1600000F0E8F883464BF43F
:102320008071A26902F1600000F0E3F8A16901F197
:10233000640000F0DBF880462BE0A16901F16C003D
:1023400000F0D4F80746082E06D1E06BB8B1E26B76
:10235000501CE063177012E0102E07D1E06B70B1D3
:10236000E16B0F80E06B801CE06308E0202E06D15B
:10237000E06B20B1E06B0760E06B001DE06320695B
:1023800000EBE6002061A16901F1640000F0AEF805
:10239000804608F001000028CFD0606CA8B3A16986
:1023A00001F1640000F0A2F8804621E0082E02D17D
:1023B000A06B077808E0102E02D1A06B078803E01D
:1023C000202E01D1A06B0768A16901F16800394690
:1023D00000F08FF8A06B00EBE600A063606CA0EB50
:1023E000E6006064A16901F1640000F07FF88046B6
:1023F00008F0080010B9606C0028D7D1A16901F17C
:102400006000594600F075F81CE0FFE7A26902F190
:102410007000216B00F06DF8A16901F1280000F057
:1024200065F820F004000090A16901F128000099EE
:1024300000F05FF80020A0644FF49061D4E91330FD
:10244000226C984705F0800028B100224FF491617A
:10245000D4E91330984705F4807028B1002240F287
:102460008941D4E91330984705F0020060B1D4E9FE
:102470001001A0EB010AE068401CE060524640F207
:102480008741D4E91330984705F0200060B1D4E9C2
:102490001001A0EB010AA068401CA060524640F267
:1024A0008241D4E91330984705F0080060B1D4E9BF
:1024B0001001A0EB010A6068401C6060524640F2C7
:1024C0008141D4E91330984705F4005060B1D4E954
:1024D0001001A0EB010A6068401C6060524640F2A7
:1024E0008A41D4E91330984700BFD8E6014608680E
:1024F000704702461160704704000020D877000042
:1025000010B50246002000210CE0C1EBC103164CBF
:1025100034F82330934204D1C1EBC10304EB8300B0
:1025200002E0491C0429F0D300BF10BD70B5054678
:102530000E461DB100200D49086008E086210C48B8
:10254000FDF786FE012009490860002070BD304675
:10255000FFF7D6FF04460CB90220F7E721462846CC
:102560006268FFF7EDFAF1E77C000020040000202C
:102570002478000070B504460D4640F2BB11EB48CC
:10258000FDF766FE0120EA49086070BD70B504469B
:102590000E4615461CB10020E549086008E08B2175
:1025A000E248FDF755FE0120E1490860002070BDBA
:1025B000002060620021E162A1622063A163616387
:1025C0004FF011302062E561DA48E0636064E16950
:1025D00001F10C00002100F0A5F9204600F041FBBC
:1025E0000020E4E72DE9F04104460025E16901F10E
:1025F000080000F094F9C6B2E16901F1080000F0AA
:102600008EF9C6B2E16901F10C00002100F08AF9EF
:1026100037460CE0626A515DE269101D00F082F9F4
:102620006D1CE16901F1080000F079F9C6B206F00D
:10263000080010B9E06AA842ECD8606A28446062D9
:10264000E06A411BE162A0682844A06007F010071F
:10265000E16901F10C00394600F064F92846BDE853
:10266000F0812DE9F04104460E4615461CB10020CC
:10267000AF49086009E0DA21AC48FDF7E9FD012027
:10268000AB4908600020BDE8F0811EB10020A849D8
:10269000086008E0DB21A548FDF7DAFD0120A44928
:1026A00008600020EFE7206AB0F1113F03D100205D
:1026B0009F49086008E0DC219C48FDF7C9FD012026
:1026C0009B4908600020DEE7002D03DB00209849CD
:1026D000086008E0DD219548FDF7BAFD0120944926
:1026E00008600020CFE7E16901F1080000F017F968
:1026F0000746E16901F10C00002100F013F9A56221
:10270000E562666207F01007E16901F10C003946E5
:1027100000F008F92046FFF765FF80464046B2E723
:102720002DE9F04104460025E16901F1080000F0BF
:10273000F6F8C7B2E16901F10C00002100F0F2F8EF
:1027400024E0E16901F1080000F0E9F8C6B206F002
:102750000100D0B1E06900F0E2F8C2B228466D1C79
:10276000236B1A5406F0200010B12069401C206130
:1027700006F0800010B16069401C606106F0400006
:1027800020B1A069401CA06100E002E0A06BA8425B
:10279000D7D800BF206B28442063A06B411BA163E6
:1027A000E0682844E06007F01007E16901F10C00DF
:1027B000394600F0B7F82846BDE8F0812DE9F04130
:1027C00004460E4615461CB10020594908600AE02F
:1027D00040F22D115548FDF73BFD0120544908609A
:1027E0000020BDE8F0811EB100205149086009E0D9
:1027F0004FF497714D48FDF72BFD01204C490860BF
:102800000020EEE7206AB0F1113F03D100204849D3
:10281000086009E040F22F114448FDF719FD01203E
:10282000434908600020DCE7002D03DB002040491D
:10283000086009E04FF498713C48FDF709FD01205C
:102840003B4908600020CCE7E16901F1080000F095
:1028500066F80746E16901F10C00002100F062F81A
:102860006563A563266307F01007E16901F10C00B9
:10287000394600F057F82046FFF752FF80464046A1
:10288000AFE770B504461CB100202949086008E094
:102890004FF4B5712548FDF7DBFC012024490860A1
:1028A00070BD206AB0F1113F03D1002020490860BB
:1028B00008E040F26B111D48FDF7CAFC01201C49DD
:1028C0000860EDE7E16901F1080000F028F805462D
:1028D00005F0100545F00301E26902F10C0000F07B
:1028E00021F800BFDCE770B504461CB10020104998
:1028F000086009E040F295110C48FDF7A9FC0120A1
:102900000B490860002070BDE16901F1080000F08A
:1029100006F8054600BF012020EA9500F3E70146CE
:102920000868704702461160704700007478000024
:10293000040000207525000070B504460D461646BB
:102940001CB100207E49086007E064217D48FDF746
:102950007FFC01207A49086070BD1DB100207849D4
:10296000086007E065217748FDF772FC0120744993
:102970000860F1E7206AB0F1113F03D100207049EF
:10298000086007E066216F48FDF762FC01206C4992
:102990000860E1E7E563266400BFDDE770B5044643
:1029A0000D4616461CB100206549086007E08521E8
:1029B0006448FDF74DFC01206149086070BD1DB100
:1029C00000205F49086007E086215E48FDF740FC73
:1029D00001205B490860F1E7206AB0F1113F03D1A3
:1029E00000205749086007E087215648FDF730FC72
:1029F000012053490860E1E76564A66400BFDDE794
:102A000070B50446E06A38B9A56A0021A16229467A
:102A1000D4E91120904702E02046FFF7E3FD20684B
:102A2000401C206070BD70B50446A06B10B12046FC
:102A3000FFF776FEA06B28B9D4E90D53E91AD4E963
:102A40000F2090476068401C606070BD70B5044600
:102A50001CB100203A49086007E0A2213948FDF77F
:102A6000F7FB01203649086070BDE16901F10800FB
:102A7000056800BF05F0030010B12046FFF7D3FF43
:102A800005F0040020B1A06A10B12046FFF7B8FF9E
:102A900000BFE9E710B504461CB1002028490860D2
:102AA00008E040F221112748FDF7D2FB012024491C
:102AB000086010BD206AB0F1113F03D10020204909
:102AC000086008E04FF491711E48FDF7C1FB01203A
:102AD0001B490860EDE7E16901F10C00002100F0FD
:102AE0002BF800BFE5E710B504461CB100201449DF
:102AF000086008E040F23F111248FDF7A9FB0120F1
:102B00000F49086010BD206AB0F1113F03D10020C9
:102B10000B49086008E04FF4A0710A48FDF798FBE4
:102B2000012007490860EDE7E16901F10C0010217F
:102B300000F002F800BFE5E70246116070470000B0
:102B400004000020C878000000BF00BF826802F0C7
:102B50000802082AF9D0021D1346196000BF704709
:102B6000014600BF00BF886800F001000028F9D0CE
:102B700000BF0868C0B270470246002000210AE08A
:102B8000164B03EB01131B88934203D1134B03EB4A
:102B9000011002E0491C0229F2D300BF704770B552
:102BA00005460E461DB100200D49086008E0812150
:102BB0000C48FDF74DFB012009490860002070BD5D
:102BC0003046FFF7D9FF04460CB90220F7E721464B
:102BD00028466268FFF7DAFCF1E70000EC0000200D
:102BE000040000202079000070B504460D461CB199
:102BF00000203049086007E05C212F48FDF728FBE2
:102C000001202C49086070BD1DB1002029490860D1
:102C100007E05D212848FDF71BFB012025490860DE
:102C2000F1E7206AB0F1113F03D10020214908608B
:102C300007E05E212048FDF70BFB01201D490860DD
:102C4000E1E72068286060686860A068A860E068C4
:102C5000E86020692861A069A8616069686100BFB7
:102C6000D1E710B504461CB100201249086007E006
:102C70007F211148FDF7ECFA01200E49086010BDD4
:102C8000206AB0F1113F03D100200A49086007E033
:102C900080210948FDF7DCFA012006490860EEE7CB
:102CA000002020606060A060E0602061A061606141
:102CB00000BFE4E7040000207C79000010B5072184
:102CC000384800F06CF80021364800F068F8072119
:102CD0003448001D00F063F810BD10B504463220E2
:102CE000604331490860084601682E48001F00F023
:102CF00056F805212B4800F052F80021294800F031
:102D00004EF800BF27481C3000F046F80028F9D0E4
:102D10000421244800F043F80021224800F03FF845
:102D200010BD10B50446052C1DD2DFE804F00308E1
:102D30000D1217001B48183000F02EF810BD19486E
:102D4000143000F029F8F9E71648103000F024F8A4
:102D5000F4E714480C3000F01FF8EFE71148083092
:102D600000F01AF8EAE70020E8E710B50D4808304F
:102D700000F012F84FF4616100FB01F409480C30D7
:102D800000F00AF8C0EB001004EB80040548103096
:102D900000F002F8204410BD014608687047024662
:102DA000116070470400A7440C01002010B51021E9
:102DB0000E4800F017F810BD10B504460C48007816
:102DC00078B121460948001F00F00CF8012107489E
:102DD00000F008F82046FFF780FF0021034800F0CC
:102DE00001F810BD02461160704700000400A844BD
:102DF0008815002010B50121DC4800F0B4F910BDA1
:102E00002DE9FE4F00200290D848083000F0A8F9C4
:102E1000044604F03DFAD6490860D4480C3000F06E
:102E20009FF9044604F034FAD2490860CF481030C4
:102E300000F096F9044604F02BFACF490860CB481D
:102E4000143000F08DF9044604F022FACB490860F2
:102E5000C648183000F084F9044604F019FAC8494D
:102E60000860C2481C3000F07BF9044604F010FAF8
:102E7000C4490860BD48203000F072F9044604F0EF
:102E800007FAC1490860B948243000F069F90446DE
:102E900004F0FEF9BD490860B448283000F060F93C
:102EA000044604F0F5F9BA490860BA49C86804F064
:102EB000EFF905464FF08E41AD48006804F0D2F8B6
:102EC0000646B54904F02CFA0446294604F026FBD0
:102ED000A7490860AF49486904F0DAF905464FF0A0
:102EE0008E41A448006804F0BDF80646AA4904F0E3
:102EF00017FA0446294604F011FB9E490860A549CB
:102F0000086904F0C5F905464FF08E419A480068FB
:102F100004F0A8F80646A04904F002FA044629463F
:102F200004F0FCFA944908604FF08E419348006821
:102F300004F098F80446994904F0F2F98F490860C2
:102F40004FF08E418E48006804F08CF80446934997
:102F500004F0E6F98A4908604FF08E41894800681C
:102F600004F080F804468D4904F0DAF985490860D8
:102F700089498048006804F09FFA1ED87D4801689E
:102F8000874804F0CBFA06464FF08F4104F0C8F9A9
:102F9000054604F029F904462146824800F0E3F88A
:102FA00080482C3000F0DCF8054604F071F9044646
:102FB0004FF08F4104F056F8029077496D48006851
:102FC00004F07AF91AD24FF08F416A48006804F091
:102FD000A7F9054604F008F904462146714800F0B7
:102FE000C2F870482C3000F0BBF8054604F050F9E8
:102FF00004464FF08F4104F035F80290029803F038
:1030000097FF0646684A694B03F074FD04460D4677
:103010004FF08E415C48006804F024F84FF0834183
:10302000009004F07DF9019003F082FF06465E4AAD
:103030005E4B03F05FFD804622462B4603F08EFE7A
:10304000824603F083FA50490860534948480068B3
:1030500004F032FA1ED846480168514804F05EFA7E
:1030600006464FF08F4104F05BF9054604F0BCF8CA
:10307000044621464B4800F076F84A482C3000F0D0
:103080006FF8054604F004F904464FF08F4103F051
:10309000E9FF029040493648006804F00DF91AD261
:1030A0004FF08F413248006804F03AF9054604F0C9
:1030B0009BF8044621463B4800F055F839482C302F
:1030C00000F04EF8054604F0E3F804464FF08F4157
:1030D00003F0C8FF0290029803F02AFF0646324A26
:1030E000324B03F007FD804689464FF08E4127485A
:1030F000006803F0B7FF83464FF0834104F010F9F6
:10310000824603F015FF0646274A284B03F0F2FCDF
:10311000044642464B4603F021FECDE9000103F090
:1031200015FA1A4908604FF08E411948006803F0FB
:1031300099FF81464FF0834104F0F2F8044603F012
:10314000F7FE0746184A194B03F0D4FC054603F076
:10315000FDF90F490860012015490870BDE8FE8F90
:103160000146086870470246116070470000A44499
:103170001001002014010020180100201C01002073
:103180002001002024010020280100202C01002023
:103190003001002088150020000034430000FA446C
:1031A0000000B4430000AA449A9999999999234040
:1031B0003401002010B50121084800F00CF800216E
:1031C000064800F008F810BD00BF0449091D096851
:1031D000A1F1640070470246116070470000A044EE
:1031E00010B50121114800F01DF800210F4800F032
:1031F00019F810BD014621B1012907D002290FD1CC
:1032000009E000BF0948001D0068704700BF07487B
:1032100008300068F9E700BF04480C300068F4E7A4
:103220000020F2E702461160704700000000A2444F
:1032300010B50121134800F022F80021114800F0D8
:103240001EF810BD10B50F480C3000F015F80E49EF
:1032500008600C48103000F00FF80C49086009486D
:10326000001D00F009F80A4908600648083000F01F
:1032700003F80849086010BD014608687047024617
:10328000116070470000A344380100203C01002079
:10329000400100204401002010B50321374800F010
:1032A00069F80221354800F065F810BD2DE9F041BC
:1032B000002400BF3148001D00684FF47A71B0FB54
:1032C000F1F4204603F0AFFB05462A460B460020EA
:1032D0002B4903F021FA074603F076FBBDE8F081A5
:1032E00010B50146002040F2FF3006E0421E254B9B
:1032F00053F8222043F82020401E0028F6DC214A03
:1033000011600022204B1A60FF22204B1A6000201F
:1033100018E01C4A52F820201B4B1B689A4204DD1F
:10332000184A52F82020184B1A60164A52F82020EA
:10333000164B1B689A4204DA124A52F82020134BAB
:103340001A60401CB0F5806FE3DB0F4B1B680F4C1D
:1033500024681A1902EBD2735B100D4C236010BD68
:1033600000BF0648083000680146012900D17047B7
:103370000220FCE702461160704700000400A144EF
:10338000004CED40880500204C0100205001002039
:103390004801002002490A46106000BF7047000043
:1033A0000000A6442DE9F0413348006803F0C0FD59
:1033B0000646324A324B03F0D1FC044603F0C6F80D
:1033C0002D4908604FF416712E4800F052F82E492E
:1033D0002C48001D00F04DF803212A48083000F069
:1033E00048F801212748103800F043F84FF08E418B
:1033F0002648006803F094FF054603F011FF0446D9
:10340000214620480C3800F034F84FF08E41204817
:10341000006803F085FF054603F002FF04462146DD
:103420001848083800F025F84FF08E41124800681F
:1034300003F076FF054603F0F3FE044621461148EB
:10344000001F00F016F800BF0E480C30006811494C
:10345000086000BF0B4810300068044603F0FAFA19
:10346000054600220C4B03F057F90C4A03C2BDE895
:10347000F081024611607047300100209A999999B5
:10348000999923401000A54420A10700280100209D
:103490002C0100206C0100200000E04070010020A1
:1034A00010B50121C64800F088F90021C44800F099
:1034B00084F910BD2DE9F34FC5B00C464FF480716F
:1034C00004A802F021F800200390029000250026B5
:1034D00081464FF08F41459803F022FF804603F06C
:1034E00083FE07463946B648083800F066F9B44806
:1034F000243000F05FF9009003F0CAFE019003F061
:1035000017FD82460022AF4B03F006F9074603F091
:103510001DF80390AA480C3000F04CF9009003F01D
:10352000B7FE019003F004FD82460022A54B03F094
:10353000F3F8074603F00AF80546A148203000F0EA
:1035400039F9834603F0A4FE824603F0F1FC002221
:103550009C4BCDE9000103F0DFF8074602F0F6FFCF
:1035600002909748103000F025F9009003F090FE8B
:10357000019003F0DDFC82460022924B03F0CCF870
:10358000074602F0E3FF06462946304603F0FCFCFE
:1035900081460A2C40D2DFE804F005090B0D0F1418
:1035A000161E2F37039847B0BDE8F08F0298FAE750
:1035B0002846F8E73046F6E73146284603F052FD44
:1035C000F1E74846EFE77E48183000F0F3F8074689
:1035D00003F05EFEE7E749464FF07E5003F042FD00
:1035E00080464FF07E5103F0CFFC074639464FF03E
:1035F0007E5003F037FDD6E771482C3000F0DAF842
:10360000074603F045FECEE76D48303000F0D2F8B3
:10361000074603F03DFEC6E70020C4E770B5C0B022
:103620004FF48071684601F06FFF00216648006822
:10363000FFF740FF0646304603F07AFC0446224678
:103640000B4662A1684601F0BDFD6846FDF778FEB5
:1036500001215D480068FFF72DFF0646304603F064
:1036600067FC044622460B465CA1684601F0AAFDB1
:103670006846FDF765FE022153480068FFF71AFF10
:103680000646304603F054FC044622460B4657A13A
:10369000684601F097FD6846FDF752FE03214A484F
:1036A0000068FFF707FF0646304603F041FC04467A
:1036B00022460B4651A1684601F084FD6846FDF79D
:1036C0003FFE052140480068FFF7F4FE06463046FD
:1036D00003F02EFC044622460B464CA1684601F03E
:1036E00071FD6846FDF72CFE072137480068FFF79B
:1036F000E1FE0646304603F01BFC044622460B461C
:1037000046A1684601F05EFD6846FDF719FE2E48A9
:10371000006803F00DFC044622460B4643A16846B0
:1037200001F050FD6846FDF74BFE2548243000F0BF
:1037300041F80446224640A1684601F043FD684630
:10374000FDF73EFE1E48203000F034F804462246C5
:103750003CA1684601F036FD6846FDF731FE40B0F9
:1037600070BD10B5C0B04FF48071684601F0CCFE5A
:103770004FF4F0111248083800F01FF810482430B8
:1037800000F018F8044622462BA1684601F01AFD05
:103790006846FDF715FE0A48203000F00BF8044695
:1037A000224628A1684601F00DFD6846FDF708FE97
:1037B00040B010BD0146086870470246116070476E
:1037C0000800AA440000F040A401002074312E74C7
:1037D00078743D22252E36662200000074322E7445
:1037E00078743D22252E36662200000074332E7434
:1037F00078743D22252E36662200000074342E7423
:1038000078743D22252E36662200000074352E7411
:1038100078743D22252E36662200000074362E7400
:1038200078743D22252E366622000000484D49203E
:103830003D2025660000000073696E203D20256450
:1038400000000000636F73203D202564000000002D
:1038500010B50121124800F01FF800211048001D8A
:1038600000F01AF810BD10B5044621460C48001DA2
:1038700000F012F801210A48001F00F00DF80021A5
:103880000748001F00F008F800BF00BF04480830D8
:1038900000680028F9D010BD024611607047000092
:1038A0000400A94401210170642181600021C160EC
:1038B000016141614160816101624162C1620163F4
:1038C00070470020F8498862C8610862486208634E
:1038D000704710B50246104602E000EB8003580026
:1038E0000B1EA1F10101F8D110BD70B505460C46C3
:1038F000284603F0B5FC064604E0EC49304603F0E8
:10390000B1FB0646201EA4F10104F6D1304670BD7D
:103910002DE9F04F91B0202109A801F0F5FD002616
:103920000027B046E248007800286ED00020E14928
:103930000860DF490870E04800785A2806D05B2804
:1039400018D065283AD0702813D155E0DA4840786D
:10395000DA490870002408460278D9A109A801F0C4
:1039600031FC09A801F07FFDC4B2214609A8FDF78A
:10397000D0FCD9E0D0484078D4490860CE490879D5
:1039800003F086FCD2490860202101A801F0BCFDAB
:103990000024CF48006803F027FC05462B46CB489F
:1039A000CCA1026801A801F00DFC01A801F05BFDAB
:1039B000C4B2214601A8FDF7ACFCB5E0BE48407892
:1039C000BE490870BC488078C8490860202101A819
:1039D00001F09AFD0024C5480368B8480278C4A1E4
:1039E00001A801F0EFFB01A801F03DFDC4B22146A2
:1039F00001A8FDF78EFC97E00024A146A246002511
:103A00000020C049086000262CE08EE0BAF1000FCB
:103A100006D0BAF1010F0DD0BAF1020F20D113E098
:103A2000A548805D702802D14FF0010A18E04FF0E0
:103A3000000A15E0A048805D202802D14FF0020A5C
:103A40000EE04FF0000A0BE09B48805D04A948554A
:103A500004A8405D2E2800D12F46681CC5B200BFC7
:103A600000BF761C9448805DFF28CFD1EFB90DE0F0
:103A70006A1E111B04AA125DA2F13000FFF729FF94
:103A80008C49096808448B490860641CAC42EFDB30
:103A90008848006803F0E4FB83469A48016858466A
:103AA00003F072FA974908603EE0681EC5B2A5EBC4
:103AB000070800209349086000240DE07A1E111BBE
:103AC00004AA125DA2F13000FFF703FF79490968EB
:103AD000084478490860641CBC42EFDB7548006804
:103AE00003F0BEFB834687480168584603F04CFA52
:103AF0008449086001240DE0E11904AA515CA1F198
:103B000030002146FFF7F1FE8346494603F03CFAB8
:103B10008146641C4445EFDD49467A48006803F05D
:103B200033FA7849086000BF00BF11B0BDE8F08FDC
:103B300000B589B0202101A801F0E6FC72480068B8
:103B400047F23051884221DB70A101A801F03AFB15
:103B500001A8FDF7F5FB6C48006847F6181188428C
:103B60000ADB0020684908606AA101A801F02AFB6D
:103B700001A8FDF7E5FB12E063480068401C6249BC
:103B800008604FF47A70FFF7A8F808E05E48006814
:103B9000401C5D4908604FF47A70FFF79EF809B049
:103BA00000BD2DE9F04F91B0202109A801F0ACFC37
:103BB0005A4800685A4908605A4800783F490978CD
:103BC000884252D042F21070FFF7F6F800204E49BA
:103BD0000860354854A1826809A801F0F3FA09A8E1
:103BE000FDF7AEFB35480078002829D151A109A87E
:103BF00001F0E8FA09A8FDF7A3FB52A109A801F01A
:103C0000E1FA09A8FDF79CFB51A109A801F0DAFA35
:103C100009A8FDF795FB51A109A801F0D3FA09A85D
:103C2000FDF78EFB50A109A801F0CCFA09A8FDF719
:103C300087FB50A109A801F0C5FA09A8FDF780FB90
:103C40000020194988620420FDF7A2F81B4800787B
:103C50000A280AD0194800780B2806D0174800789F
:103C60000C2802D00020464908601448007800283B
:103C700018D10420FFF755F805460320FFF751F847
:103C800006460220FFF74DF80446FFF71AFE3346BA
:103C90002A463CA109A8009401F094FA09A8FDF76E
:103CA0004FFB9EE0A4E000008815002000002041AA
:103CB000BC010020AC01002074050020B0010020F0
:103CC000504147453A25640A00000000FC010020ED
:103CD000F80100204C45445F49443A2564204C4596
:103CE000445F6E756D3A25640A000000B40100203F
:103CF000504147453A25642020425554544F4E3A8E
:103D000025640A00A4010020F001002064696D3DD3
:103D100032350000736C6565703D31002C01002068
:103D2000E8010020B101002064696D203D20256478
:103D30000000000074312E7478743D22323032312C
:103D40002200000074322E7478743D22C4EA2200EE
:103D500074332E7478743D223522000074342E742E
:103D600078743D22D4C2220074352E7478743D22BA
:103D70003230220074362E7478743D22C8D5220069
:103D80008801002074302E7478743D2225643A2511
:103D9000643A256422000000F9A109A801F012FA92
:103DA00009A8FDF7CDFA0120FFF75DFD0220FFF71E
:103DB0005AFD0320FFF757FD0420FFF754FD0520AF
:103DC000FFF751FD0620FFF74EFD0720FFF74BFDE3
:103DD0000820FFF748FDEF48FEF77FFFED48FEF7AC
:103DE0007CFFED4800780028D6D1FFF7A1FE00BF88
:103DF000EA480078012825D1E948806A48B90120BD
:103E0000E7498862E7A109A801F0DCF909A8FDF7F4
:103E100097FAE74800680E2814D10020E4490860AA
:103E2000E4A0FDF78DFAE3A0FDF78AFA00BFE448AD
:103E300000780028FBD0FFF76BFDFFF7EFFB0020B9
:103E4000E0490860D548007802284FD10420FEF7E9
:103E500068FF07460320FEF764FF80460220FEF756
:103E600060FF04460120FEF75CFF05463A46D6A1F6
:103E700009A801F0A7F909A8FDF762FA4246D5A101
:103E800009A801F09FF909A8FDF75AFA2246D4A122
:103E900009A801F097F909A8FDF752FA642095FBEB
:103EA000F0F100FB11563246D0A109A801F08AF9C1
:103EB00009A8FDF745FAD0A109A801F083F909A8DE
:103EC000FDF73EFACFA109A801F07CF909A8FDF79A
:103ED00037FA04EB4400002101EB4002CCA109A811
:103EE00001F070F909A8FDF72BFA00BFAB48007884
:103EF00003285FD1FEF784FFC848006803F074F917
:103F000004462246C6A109A801F05CF909A8FDF7FC
:103F100017FAC648006803F067F904462246C4A1B0
:103F200009A801F04FF909A8FDF70AFAC349BB48EF
:103F3000006803F0C1FA06D2C149B848006803F02E
:103F4000EDFAB6490860BD49B848006803F0B4FA14
:103F500006D2BB49B548006803F0E0FAB3490860EF
:103F6000AE48006802F0E4FF044622460B46B5A1C5
:103F700009A801F027F909A8FDF7E2F9AB480068A4
:103F800002F0D6FF044622460B46B2A109A801F072
:103F900019F909A8FDF7D4F9B248006802F0C8FF82
:103FA000044622460B46B0A109A801F00BF909A866
:103FB000FDF7C6F979480078042877D100200590EC
:103FC00004907748C06940B901217548C161AA4889
:103FD000AA490860AA48AB49086042F21070FEF78F
:103FE0007CFEFEF70DFF95498C48006803F064FAEB
:103FF00006D293498948006803F090FA874908601F
:104000008E498A48006803F057FA06D28C498748DF
:10401000006803F083FA854908608048006880F0F2
:1040200000407E4908608148006880F000407F4978
:1040300008607A48006802F07BFF044622460B467F
:1040400091A109A801F0BEF809A8FDF779F9774810
:10405000006802F06DFF044622460B468EA109A8B7
:1040600001F0B0F809A8FDF76BF900216B48006872
:1040700003F022FA05D271496848006802F0F2FFA5
:1040800007E06648006880F000446C49204602F072
:10409000E9FF089000216548006803F00DFA06D298
:1040A00066496248006802F0DDFF08E056E15F48BB
:1040B000006880F000446149204602F0D3FF079079
:1040C000DDE9071002F060FF069005210698FFF772
:1040D000F1F904464FF07E5103F020FA8246504633
:1040E00002F026FF044622460B466FA109A801F004
:1040F00069F809A8FDF724F96F494848006802F0FB
:10410000B1FF05906C494948006802F0ABFF04908C
:104110006A480068052830DB002068490860684963
:104120005648006803F0C8F803D265485349086050
:1041300019E064495148006803F0BEF903D26148B0
:104140004E4908600FE06048006803F089F80546B2
:10415000049903F0E5F804464A480168204602F055
:1041600013FF4849086059494648006803F0A4F81D
:1041700004D2564943480160D6E0E9E0A8E00000D7
:1041800074302E7478743D22D5FDD4DAB4F2D3A104
:104190002E2E220020A1070010000020B0010020D8
:1041A0008815002074302E7478743D22202200007F
:1041B000B40100206765742074302E747874000098
:1041C000BC010020A401002074302E7478743D22BC
:1041D0002564220074312E7478743D2225642200F7
:1041E00074322E7478743D222564220074332E7448
:1041F00078743D222564220074342E7478743D2234
:104200004822000074352E7478743D225722000035
:104210007A322E76616C3D25640000001401002086
:104220007A302E76616C3D2564000000100100207C
:104230007A312E76616C3D25640000000000344325
:104240000000B44374332E7478743D22583A252EFE
:104250003266220074342E7478743D22593A252E29
:10426000326622001801002074352E7478743D22C5
:104270005A3A252E3266220000006D43D0010020FC
:1042800000002043D401002074322E7478743D2243
:10429000252E32662200000074332E7478743D227D
:1042A000252E32662200000074302E7478743D2270
:1042B000252E32662200000000003442E401002076
:1042C0000000DC420080B643E00100200000F04125
:1042D000FC49FD48006803F0EFF803D2F948FA49B9
:1042E000086021E0F948006802F0BAFF01900599E2
:1042F00003F016F8834602F01BFE80464FF033327F
:10430000F34B02F0F7FB04460D46F248006802F05A
:104310000FFE064622462B4602F04AF9CDE902017D
:1043200002F014F9EB490860E748006802F05CFF0E
:104330000446E848006802F057FF054623462A462F
:10434000E5A109A800F03EFF09A8FCF7F9FF04E089
:10435000E6480068401CE549086000BFE448007872
:1043600005280ED1E349E448006802F07BFE0646CA
:10437000E24902F0D5FF054602F036FF0446FFF79A
:1043800009F8DB480078062847D1DD480368DD4896
:10439000DDA1026809A800F015FF09A8FCF7D0FF0D
:1043A000DE480368DE48DFA1026809A800F00AFFC2
:1043B00009A8FCF7C5FFFEF73BFFDE48FEF78DFCC2
:1043C000DC48FEF78AFCFEF73DFFCD480368CD4888
:1043D000CDA1026809A800F0F5FE09A8FCF7B0FF1E
:1043E000CE480368CE48CFA1026809A800F0EAFED3
:1043F00009A8FCF7BDFFC348CFA1026809A800F0D7
:10440000E1FE09A8FCF79CFFC548CEA1026809A8F7
:1044100000F0D8FE09A8FCF793FFB54800780828FB
:1044200035D1FEF7EDFCFEF7BDFFC948AFF26821BC
:10443000026809A800F0C6FE09A8FCF781FFC5487C
:10444000AFF27021026809A800F0BCFE09A8FCF7D1
:1044500077FFC148C1A10CC809A800F0B3FE09A8A4
:10446000FCF76EFFBB480068B9490968884207DB62
:10447000BFA109A800F0A6FE09A8FCF761FF06E0AD
:10448000BFA109A800F09EFE09A8FCF759FF9848B3
:1044900000780A2816D1BE480068BE49096842184B
:1044A000AFF2C42109A800F08DFE0520BA490860CA
:1044B0001E20BA49086009A8FCF742FFFEF755FC28
:1044C000B74908608A4800780B287DD1B548006854
:1044D000B3490968401AB14909680C1AFEF745FC4E
:1044E000B0490860FEF78CFC2246AFA109A800F095
:1044F00069FE09A8FCF724FFECBBA5480068A649A3
:104500000968884219DBAB480068401CA94908606B
:10451000A1480068C01CA0490860A0480068801C31
:104520009E490860A4480068994909680844A2495E
:10453000086000209649086008E09748006896499E
:10454000086096480068801C944908609BA109A8EF
:1045500000F038FE9C48FEF72FFC09A8FCF7F0FE9F
:104560009A48FEF7BAFB9848FEF726FCFEF7FDFBDB
:104570008B49086076E0FFE795A109A800F022FECC
:1045800009A8FCF7DDFE95499548006802F094FF04
:1045900006D294499248006802F0C0FF9049086032
:1045A0008E498F48006802F087FF06D28D498E48F9
:1045B000006802F0B3FF8C49086000218848006859
:1045C00002F07AFE08D800E04DE088480068012833
:1045D00002D100208549086085498148006802F0C1
:1045E0006BFF0DD88148006850B901207F490860F1
:1045F00067480068401C664908607E48FEF7DCFB9F
:104600006348006864490968884207DB7AA109A801
:1046100000F0D8FD09A8FCF793FE06E07AA109A8EE
:1046200000F0D0FD09A8FCF78BFE594879A102687B
:1046300009A800F0C7FD09A8FCF782FE5748AFF2B1
:104640007841026809A800F0BDFD09A8FCF778FED2
:104650005148AFF27441026809A800F0B3FD09A8FF
:10466000FCF76EFE00BF224800780C2829D1FEF727
:104670007CFB4C490860FEF7C3FB694C6948006845
:1046800002F056FC0746684A684B02F067FB0022BE
:10469000674BCDE9040102F03FF805460022654B67
:1046A00002F028FACDE9060102F08EF98246204692
:1046B000C0F800A000BF00BF59482430006805467C
:1046C000BAE073E100009143D4010020E001002032
:1046D0003333F73FD0010020636972732025642CC7
:1046E00025642C312C52454400000000E4010020D8
:1046F000B00100200000C842F801002000504347EC
:10470000440100204001002074302E7478743D2252
:1047100025642E2564274322000000003C01002070
:104720003801002074312E7478743D2225642E25C2
:104730006422000060E3160061646420352C302C94
:104740002564000061646420352C312C2564000050
:10475000680100206C0100207001002074322E746A
:1047600078743D22252E3266206D2F7322000000C2
:10477000706963203336302C31352C31360000001F
:10478000706963203336302C31352C313500000010
:10479000780100207C0100209C0100209401002071
:1047A0008C0100209001002074342E7478743D2216
:1047B0002564220098010020A00100207669732062
:1047C00074362C310000000040420F0080C3C90144
:1047D0007669732074362C300000000000003443EA
:1047E000140100200000B4431001002080010020CB
:1047F00000002042A086010074352E70636F3D4793
:104800005245454E0000000074352E70636F3D52D6
:104810004544000074352E7478743D2225642200CE
:104820000000AA44300100209A999999999923404F
:10483000000008400000F04002F02AFD04464FF05E
:104840008F4102F00FFC8346FD480068FD4909686E
:10485000401AFD490968A1EB0009FEF7D1FA4A4662
:10486000AFF2BC0109A800F0ADFC09A8FCF768FD97
:10487000B9F1000F3ED1F5480068F5490968884252
:1048800019DBF4480068401CF2490860F0480068F1
:10489000C01CEF490860EC480068801CEA490860C9
:1048A000ED480068E94909680844EB4908600020C0
:1048B000E649086008E0E6480068E5490860E24823
:1048C0000068801CE0490860AFF2101109A800F0F0
:1048D00079FCE248FEF770FA09A8FCF731FDE048E0
:1048E000FEF7FBF9DD48FEF767FAFEF73EFAD54919
:1048F00008605AE0AFF2281109A800F063FC09A88B
:10490000FCF71EFD584602F013FB04460022D54B6F
:1049100002F0EEF90DD2D448006850B9CB480068D7
:10492000401CCA4908600120CF490860CF48FEF703
:1049300043FA584602F0FCFA04460022C94B02F042
:104940009DF806D2C8480068012802D10020C64957
:104950000860BE480068BE490968884207DBAFF2BC
:10496000681109A800F02EFC09A8FCF7E9FCB7487B
:10497000AFF26011026809A800F024FC09A8FCF756
:10498000DFFCB148AFF2C071026809A800F01AFC60
:1049900009A8FCF7D5FCAE48AFF2BC71026809A8C3
:1049A00000F010FC09A8FCF7CBFC00BFB048007871
:1049B00009287DD1AF48006AC0B90120AD4908621D
:1049C0000846406800F11602ABA109A800F0FAFB06
:1049D00009A8FCF7B5FCA7480078C0F11C02A9A102
:1049E00009A800F0EFFB09A8FCF7AAFCA84800788A
:1049F00038B9A8A109A800F0E5FB09A8FCF7A0FCBC
:104A00000AE0A3480078012806D1A6A109A800F071
:104A1000D9FB09A8FCF794FCA6480068052843D1F7
:104A20000020A44908609348406804280CD1002065
:104A3000904948600846A0A1826809A800F0C2FB1E
:104A400009A8FCF77DFC0DE08A484068401C8949B4
:104A50004860084698A1826809A800F0B3FB09A83D
:104A6000FCF76EFC00209349086082484068000112
:104A7000C0F164007F4988600846406800F1150273
:104A80007DA109A800F09EFB09A8FCF759FC794814
:104A90008DA1826809A800F095FB09A8FCF750FCDD
:104AA0004CF25030FEF719F982480068092800E0FE
:104AB00037E026D100207F4908606E480078012841
:104AC0000AD100206B49087081A109A800F07AFB87
:104AD00009A8FCF735FC09E001206649087080A1AF
:104AE00009A800F06FFB09A8FCF72AFC61480078D0
:104AF000C0F11C0263A109A800F064FB09A8FCF73F
:104B00001FFC6C4800680B2812D10020694908601E
:104B10005F48007830B901205D4908700020744971
:104B2000087005E000205A4908700120704908709B
:104B30004F4800780D2854D14E48406A48B90120AA
:104B40004C4948626BA109A800F03CFB09A8FCF79E
:104B5000F7FBFEF755F96A48006802F0E9F90446E8
:104B600022460B4667A109A800F02CFB09A8FCF718
:104B7000E7FB6848006802F0DBF9044622460B4672
:104B800065A109A800F01EFB09A8FCF7D9FB49485C
:104B90000068062825D157A109A800F013FB09A831
:104BA000FCF7CEFB0020434908605F48FEF795F80C
:104BB0005848006802F034FB2E49C8605B48006822
:104BC00002F02EFB2B4908614D48006802F028FBDB
:104BD0002849486156A109A800F0F4FA09A8FCF791
:104BE000AFFB23480078072829D12248006BC8B9B9
:104BF0002048006B401C1F49086350A109A800F021
:104C0000E1FA09A8FCF79CFB50A109A800F0DAFA28
:104C100009A8FCF795FB50A109A800F0D3FA09A850
:104C2000FCF78EFBFEF7D0FA4E4908604EA109A8AA
:104C300000F0C8FA09A8FCF783FB4A489AE0A4E10F
:104C4000900100208C010020940100207C010020B4
:104C50009C01002098010020A001002040420F008C
:104C600080C3C9010000044084010020A086010027
:104C7000B00100208815002070312E7069633D2539
:104C80006400000070332E7069633D2564000000ED
:104C90000102002062332E7478743D224F50454E3D
:104CA0002200000062332E7478743D22434C4F532F
:104CB00045220000B401002062302E7478743D2239
:104CC000256425220000000064696D3D2564000014
:104CD00062322E7478743D22434C4F534544220077
:104CE00062322E7478743D224F50454E22000000EF
:104CF000000200207669732074332C30000000001D
:104D00001401002074312E7478743D22783A252ED7
:104D1000336622001001002074322E7478743D2214
:104D2000793A252E33662200404B4C0018010020B2
:104D30007669732074332C310000000074302E74B7
:104D400078743D224D415848522200007669732004
:104D50007431312C30000000766973207431322CAC
:104D600030000000C001002073302E6469733D33B1
:104D700030300000B3A1026809A800F023FA09A8A6
:104D8000FCF7DEFAB248006801F04DFE07463A46ED
:104D90000B460020AF4901F0BFFC054601F014FEB0
:104DA0000446AD48006802F05BFA8046AB480168F3
:104DB0004FF07E5002F0B2FB8346414602F0B0FA5B
:104DC0000646204602F04CFA8046A4480168404658
:104DD00002F0A6FA0746314602F0D6F8054602F080
:104DE00003FA9F4908604FF000094FF47A7A3CE0DB
:104DF00000BF9C4800684FF47A71B0FBF1F0944911
:104E000008600846006801F00EFE07463A460B4669
:104E10000020904901F080FC054601F0D5FD0446D4
:104E20008D48006802F01CFA80468C4801684FF0FB
:104E30007E5002F073FB8346414602F071FA06464B
:104E4000204602F00DFA804684480168404602F090
:104E500067FA0746314602F097F8054602F0C4F9B2
:104E600081490860084600688144BAF10000AAF14F
:104E7000010ABDD14FF47A7099FBF0F07A490860CD
:104E80000020FEF7B7F905462A46AFF2E46109A80B
:104E900000F098F909A8FCF753FA0120FEF7AAF9E7
:104EA00005462A46AFF2946109A800F08BF909A8DB
:104EB000FCF746FA0220FEF79DF905462A466BA14B
:104EC00009A800F07FF909A8FCF73AFA60486AA13E
:104ED000026809A800F076F909A8FCF731FAFEF794
:104EE0003FFA01280AD16748007838B166A109A8BD
:104EF00000F068F909A8FCF723FA18E0FEF730FA89
:104F000001280AD05F48007838B164A109A800F0F0
:104F100059F909A8FCF714FA09E05A48007830B9A1
:104F200068A109A800F04EF909A8FCF709FA0020C9
:104F3000FEF760F9FF2803D00120FEF75BF950B9B6
:104F400000205049087062A109A800F03BF909A8A7
:104F5000FCF7F6F909E001204A49087064A109A8A4
:104F600000F030F909A8FCF7EBF9782C08DA3E4894
:104F700066A1026809A800F025F909A8FCF7E0F984
:104F8000394800683449086000BF634800780E283B
:104F900051D162480068032846D100205F4908606B
:104FA0000120FBF7F5FE5E480078022810D10020B2
:104FB0005B4908705BA109A800F004F909A8FCF797
:104FC000BFF909A8FCF7BCF90520FBF7E1FE2BE0CF
:104FD00053480078012810D102205149087056A189
:104FE00009A800F0EFF809A8FCF7AAF909A8FCF74E
:104FF000A7F90220FBF7CCFE16E04948007880B9FB
:1050000001204749087050A109A800F0DBF809A861
:10501000FCF796F909A8FCF793F90120FBF7B8FE15
:1050200002E000203E4908703C480068052802D193
:105030000320FBF7ADFE384800784749087011B0EF
:10504000BDE8F08F61646420332C302C25640000AF
:1050500058010020004CED40640100206001002058
:10506000C00100200800A144C401002074362E7441
:1050700078743D222564220074392E7478743D22A0
:1050800025642200020200207431332E7478743DAE
:1050900022D0C4C2CAD5FDB3A32200007431332E7E
:1050A0007478743D22F1BCD0D4D0C4C2C9B2BBC69E
:1050B000EBA3A1BDA8D2E9B5F7D5FBD7F7CFA2A343
:1050C000A12200007431332E7478743D2220220016
:1050D0007431302E7478743D22BCECB2E2B5BDCA96
:1050E000D6D6B8CEB4D5FDC8B7B7C5D6C322000052
:1050F0007431302E7478743D22BCECB2E2B5BDCA76
:10510000D6D6B8B7C5D6C3220000000074372E74B7
:1051100078743D2225642200B0010020B4010020F3
:105120000302002074312E7478743D22416E74693C
:105130002D436F6C6F72220074312E7478743D228F
:105140005363616E2200000074312E7478743D2226
:105150004E6F726D616C2200B101002010B500210C
:10516000174800F02AF80121154800F026F810BD74
:1051700010B5044600BF00BF1148001D006800289C
:10518000F9D021460E48001F00F017F803210C4803
:1051900000F013F801210A4800F00FF810BD10B517
:1051A000044606E02078FFF7E3FF641C6420FDF767
:1051B00094FD20780028F5D110BD0246116070479B
:1051C0000400AB440FB41CB5074B06AA7B446946E8
:1051D0000090059800F02DFC0020694600F03CFC92
:1051E0001CBC5DF814FB00008908000070B50C467B
:1051F0000546012A05D02878800600D5EA690023F3
:1052000002E0012305E05B1C934202D2E05C00282F
:10521000F9D1A869E618C01AA861286A184428625A
:105220002846AFF3008004E0D5E9012114F8010B12
:105230009047B442F8D32846AFF3008070BD000019
:105240002DE9F0410646002410687529314616A55F
:1052500010D0AFF30080002802DA404213A507E027
:1052600031688A0701D512A502E0490704D511A5C6
:10527000012401E0AFF3008000210A2206F1240797
:1052800009E0B0FBF2FCB0FBF2F302FB1C00303093
:1052900078541846491C0028F3D123462A46304644
:1052A000BDE8F04100F05AB9000000002D000000F8
:1052B0002B0000002000000070B504460D4621467A
:1052C0001068AFF300802188090502D50F4A7A449F
:1052D00002E00E4A7A440E32002104F1240305E074
:1052E00000F00F060009965D5E54491C0028F7D1B6
:1052F00020780023000704D5702D02D009B10223C5
:1053000011322046BDE8704000F028B95A23000051
:105310002DE9F0474FF0000A89460446C0F820A066
:105320002046E1688847002876D0252806D0D4E9B1
:1053300001219047206A401C2062F1E7E168204685
:1053400000258847C4F81CA006460027C4F818A00A
:105350002A2E09D0304601F0DBF838B304EB870879
:10536000303EC8F8186019E059F8041B204604EBD9
:1053700087029161E1688847012F064618D1E069EC
:10538000002820DA25F020051DE0D8F8180000EBF1
:10539000800006EB40003038C8F818002046E1686D
:1053A0008847064601F0B4F80028EED1012F0AD054
:1053B0002E2E08D12046E16888477F1C0646022F22
:1053C00045F02005C4DBA069002803DA404245F01F
:1053D0000105A061E80701D025F01005B6B1A6F1DE
:1053E0004100192802D8203645F400654A46314666
:1053F000204625604D46FAF7BDFE58B1012806D07B
:10540000ED1D25F0070000F1080989E704E005F12A
:10541000040985E730468AE7206ABDE8F08740EA5C
:105420000103024630B59B0710D14FF0013400E074
:1054300008C208C91D1B9D4315EAC41FF8D013F00C
:10544000FF0102F8011B0DD01B0AF8E711F8013B20
:10545000002B02F8013B05D011F8013B002B02F8AC
:10546000013BF3D130BD10B5431C02E010F8011B25
:1054700071B18107FAD14FF0013202C88C1A8C4306
:1054800014EAC211F9D0C01A0A0603D0C01E10BD1A
:10549000C01A10BD0A0401D0801E10BD0902FCD044
:1054A000401E10BD10B5203AC0F00B80B1E8185076
:1054B000203AA0E81850B1E81850A0E81850BFF4FE
:1054C000F5AF5FEA027C24BFB1E81850A0E818509D
:1054D00044BF18C918C0BDE810405FEA827C24BFF1
:1054E00051F8043B40F8043B08BF7047D20728BF7F
:1054F00031F8023B48BF11F8012B28BF20F8023BCE
:1055000048BF00F8012B70474FF0000200B513466A
:1055100094469646203922BFA0E80C50A0E80C50D3
:10552000B1F12001BFF4F7AF090728BFA0E80C5084
:1055300048BF0CC05DF804EB890028BF40F8042B7D
:1055400008BF704748BF20F8022B11F0804F18BFEA
:1055500000F8012B70477047704770472DE9F047FE
:105560000D4699469246044600F1240801688806D3
:1055700004D5E06921F01001216000E00120A8427B
:1055800001DD471B00E00027A1697A1902EB090041
:10559000081AA0612078C00602D42046AFF300802C
:1055A000002608E0D4E901211AF806009047206A95
:1055B000401C761C20624E45F4DB2078C0060AD5DC
:1055C0002046AFF3008006E0D4E901213020904767
:1055D000206A401C2062381EA7F10107F4DC07E0B6
:1055E000D4E9012118F805009047206A401C206288
:1055F000281EA5F10105F3DC2046AFF300802078DA
:10560000000602D50220BDE8F0870120FBE77047C5
:105610002DE9FF4F0C461E464FF0FF378BB0D2E905
:105620000001DDF860800A908A46C1F30A5505B989
:105630003D46002108464FF00000BAF1000F00F48B
:10564000400005DA00EB80004FF4400101EA500011
:105650004FEA9059B9F1010F00DDB9460A9850EAB6
:105660004A000ED044F61050A5F2FF3545432F14E2
:10567000B8F1000F1ED07542291E1EDDC9F10002CF
:105680001CE0B8F1010F4FF0000001D0302103E021
:10569000F24305E02154401CB042FBDB30460022BF
:1056A000002121540B99C1F80880C1E900200FB0F6
:1056B000BDE8F08FBD1B6D1CDEE74A4600DA69428B
:1056C00006A800F06FFA06AB93E8070003AB83E887
:1056D000070050460A9900F04CFB8DE80700A0F542
:1056E00000501F3800900398002D09DD42F21F0181
:1056F0004A46084403A90390684600F0ABFD08E061
:10570000A0F500504A461F3803A90390684600F0F0
:10571000B5FD8DE807000004000C03D04FF0FF300A
:10572000410800E01046B8F1000F03D000220092BB
:1057300015461EE0751E05D400F0AEF930326255F4
:105740006D1EF9D5B3460122084302D000227F1C0A
:1057500004E02078302801D100227F1E002A09971A
:1057600086D01DE0112D07DA00F096F9303262552F
:105770006D1C50EA0102F5D1084302D00098C8B16F
:105780000EE00021681E05E0235C625C6354225435
:10579000401E491C8142F7DBAB46A81B401E099006
:1057A000002004F80B000B98099AC0F80880C0E9A3
:1057B000002B7CE711264FF0000859E72DE9F04F48
:1057C00088460446D21D22F0070191B0D1E90001BC
:1057D000CDE90A0100F088FE02460B98C00F01D007
:1057E0002D2007E02068810701D52B2002E0202131
:1057F00001EAC000032A099001D0072A05DB03460D
:105800004146204600F08EF90BE12078800601D554
:10581000E06900E00620B8F1650F814606D0B8F1D6
:10582000660F18D0B8F1670F70D131E00020B9F1E0
:10583000110F009001DB112301E009F101030AAA15
:1058400001A90CA8FFF7E4FEDDE90C70002609F1C0
:105850000105834647E001204B4600904FF000478A
:105860000AAA01A90CA8FFF7D3FEDDE90DB00C9937
:105870005D46002610B909F101000D18B9EB0500CD
:1058800003D4C0F1FF3609F10105A5EB09002BE0B7
:10589000B9F1010F01DA4FF001090020B9F1110F40
:1058A0000090484601DD112300E003460AAA01A941
:1058B0000CA8FFF7ADFEDDE90C704D4600268346CF
:1058C000207800070AD4AB4500DA5D4601A8012D17
:1058D00004DD411911F8011C302907D04F4502DAC7
:1058E00017F1040F04DA012082460FE06D1EEEE787
:1058F000002F02DCED1B3E4403E0781CA84200DDD3
:105900007D1CB81B00F1010A4FF00047207800070A
:1059100003D4AA4501DB4FF0FF3A0021B7F1004F55
:105920000DF143088DF8431024D002202B23002FC3
:1059300001DA7F422D230A21021EA0F1010000DCC2
:105940005FB197FBF1FC97FBF1F201FB1C7C174662
:105950000CF1300C08F801CDEEE7A8F1010003705E
:105960002188090501D5452100E06521A0F1010844
:1059700000F8011C09980FA9A1EB0807FF1D00B151
:105980000120411901EBEA70A1693844081A401E50
:10599000A0612078C00602D42046AFF300800998A9
:1059A00028B1D4E901219047206A401C2062207868
:1059B000C00622D52046AFF300801EE0002E04DB97
:1059C000B34502DD01A8805D00E03020D4E901216B
:1059D0009047206A401C2062761CAAF101005FEA11
:1059E000000A0AD100F054F8C0680168405CD4E9AC
:1059F00001219047206A401C2062281EA5F1010564
:105A0000DCDC07E0D4E9012118F8010B9047206A9B
:105A1000401C2062381EA7F10107F3DC2046AFF3DB
:105A20000080032011B043E601694A1C0261087836
:105A3000704700B58FB0CDE90131002105910549CE
:105A40007944CDE9031011466846FFF761FC0FB0B9
:105A500000BD0000E5FFFFFF0A6802F8010B0A60C5
:105A6000704710B5436913B1AFF3008001E0FFF751
:105A7000BDFB012010BD127800F124010A70002244
:105A80004A700122EDE711684FF0FF32E9E70000AC
:105A900000487047DC15002030B5B0F10A024FEA2B
:105AA000900E71F100034EEA817EB0EB0E0061EBC7
:105AB00091014FEA101E4EEA017E10EB0E0041EB01
:105AC00011114FEA102E4EEA016E10EB0E0041EB61
:105AD00011214FEA104E4EEA014E10EB0E0041EB41
